:020000022000DC
:103000000000012041F7020069F702006BF702009F
:103010006DF702006FF7020071F702000000000078
:1030200000000000000000000000000073F7020034
:1030300075F702000000000077F7020079F7020040
:10304000BD5902007BF702005D680200B96D020005
:10305000056E02007BF70200E95E02007BF70200CA
:103060007BF702007BF702007BF702007BF7020090
:103070007BF702007BF702007BF702007BF7020080
:103080007BF702002D4202007BF702007BF7020073
:10309000CD4202007BF70200FDFD02007BF702003B
:1030A0007BF702007BF702007BF702007BF7020050
:1030B0007BF702007BF70200000000000000000028
:1030C0007BF702007BF702007BF70200556E0200DF
:1030D0007BF702007BF702007BF702000000000094
:1030E00000000000000000000000000000000000E0
:1030F00000000000000000000000000000000000D0
:1031000000000000000000000000000000000000BF
:1031100000000000000000000000000000000000AF
:10312000000000000000000000000000000000009F
:10313000000000000000000000000000000000008F
:10314000000000000000000000000000000000007F
:10315000000000000000000000000000000000006F
:10316000000000000000000000000000000000005F
:10317000000000000000000000000000000000004F
:10318000000000000000000000000000000000003F
:10319000000000000000000000000000000000002F
:1031A000000000000000000000000000000000001F
:1031B000000000000000000000000000000000000F
:1031C00000000000000000000000000000000000FF
:1031D00000000000000000000000000000000000EF
:1031E00000000000000000000000000000000000DF
:1031F00000000000000000000000000000000000CF
:1032000010B5054C237833B9044B13B10448AFF320
:1032100000800123237010BD0C240020000000005A
:10322000AC0C030008B5034B1BB103490348AFF3D3
:10323000008008BD0000000010240020AC0C03003A
:10324000154B002B08BF134B9D46A3F5803A002178
:103250008B460F461348144A121A0CF088FF0F4B86
:10326000002B00D098470E4B002B00D09847002031
:10327000002104000D000D48002802D00C48AFF3D7
:1032800000800CF025FF200029000AF0F1FC0CF072
:103290000BFF00BF0000080000000120000000003C
:1032A000000000000C240020FC2D00200000000085
:1032B00000000000F0B595B0002415460F46084602
:1032C0001E4602F003F9384623460895082205A950
:1032D0001A9D09960D950A948DF82C400C9402F0D5
:1032E0005BF99DF814308DF81040DDE9061003F00D
:1032F0000302012A0290ADF80C102BD0022A04D050
:10330000384602F0F3F815B0F0BDBDF81650C3F31F
:10331000C202C3F38003AD098DF80E208DF80F3083
:103320000826082D2C4628BF0824334622460EA91D
:10333000384602F031F92D1B214608AB02AA0EA82F
:10334000264400F089FD002DEBD1384602F0CEF87E
:1033500015B0F0BDBDF814500598C5F38315C3F33F
:10336000C20CAA000EA9C3F38004C0F3952608235B
:1033700038468DF80EC08DF80F4002F00DF908ABFD
:103380002A4630460EA9009302AB00F0CDFC384629
:1033900002F0ACF815B0F0BD014B01221A70704775
:1033A0006C240020704700BF70B50E4D0E4888B0E9
:1033B00003F026F90FCD6C460FC495E80F0008AD59
:1033C000062645F8206D84E80F00294600220648AD
:1033D00003F02EF808B100F00DFE044B00221A7025
:1033E00008B070BDC4010300802100202824002003
:1033F00000B583B0044B0093044A4023FFF75AFF03
:1034000003B05DF804FB00BF113402002C2400203F
:1034100010B5094C09480023D2B2237003F074F9A7
:1034200030B9074B1B7813B12378002BFCD010BDAB
:1034300000F0E0FDF5E700BF6C24002080210020B3
:103440002824002070B50D4D0FCD88B06C460FC4F8
:1034500095E80F0008AD062645F8206D84E80F00BA
:103460002946074A074802F0E3FF08B100F0C2FD11
:10347000054B01221A7008B070BD00BFC4010300E3
:1034800099330200802100202824002010B5054C2B
:10349000FFF7D8FF2046042100F004FC01236372EB
:1034A00010BD00BF882100202DE9F047824C002389
:1034B00084B0C4F81834BFF34F8FD4E9017607EA1B
:1034C0000601CB1C04EB830214F8233098073D4619
:1034D0000FD1138852889B0903EB921301331D44CB
:1034E00006EA0501CB1C04EB830214F823309B078A
:1034F000EFD004EB81016A1CCB680193324004EBEE
:10350000820203F00303D2680292022B05F1020843
:103510000FD0012B75D0032B06D02068C01B18BF1D
:10352000012004B0BDE8F087D4F818040028F4D1D5
:10353000F7E7BDF8063061484FEA93194D46502D24
:1035400028BF502565F38F1305F10801ADF806304B
:1035500001F07AFF0746002851D026EA080A0AF14E
:10356000010A01F0B3FF4FEA8A0A0023082201A9E9
:10357000384601F0E3FF554540F29080EBB2BAF1D6
:10358000000F00F0848006EA0801A3EB0A03033170
:1035900004EB8101DDB252460823384601F0CEFF2C
:1035A0002A460AF108034649384601F0C7FF09F1E7
:1035B000030908EB9909D4F81834002B62D1D4F828
:1035C000105455B16B7A28463946002B56D02B68DB
:1035D0001B6898476D68002DF4D1384601F086FFCE
:1035E00004A8002300F80D3D01F00AFBD4F81834BC
:1035F0000BB9C4F804909DF8030001F027FB67683D
:103600008BE7BDF804302D48C3F38311062928BF8A
:10361000062161F3891302318900ADF8043001F00D
:1036200013FF07460028EAD001F050FF00230822CC
:1036300001A9384601F082FFBDF8043013F4707F11
:1036400037D06FF0010AAAEB050A082506EA08013F
:1036500003312B46042204EB8101384601F06EFF52
:10366000BDF8043008F101090AEB0902C3F3831322
:103670009A42C84605F10405E8D39CE76D68002D21
:10368000A0D1AAE7384601F031FF676845E72A462E
:1036900008230B49384601F051FF88E706EA080184
:1036A000033104EB81012A460823384601F046FF26
:1036B0007DE7C1467FE700BF70240020F0010300D2
:1036C0007C24002008B50E4B0E480022FF21C3F8D1
:1036D00018249960C3E90022C3F8142483F81C2439
:1036E00001F0B0FE58B90849084BC91AC90806D0FC
:1036F000074A034622F80C3B01339942FAD108BD30
:1037000070240020F0010300380D0300E00C0300DA
:103710008823002021B9134A02EBC00000687047DB
:1037200030B411490F4C091BC90816D00F4B5A88E9
:10373000824218BF002205D111E0DD89854203F1E4
:103740000C0305D001329142F7D1002030BC704704
:1037500004EBC200006830BC70470846F6E720461C
:10376000F8E700BFE00C0300380D030088230020B9
:10377000094B013903EBC00003290BD8DFE801F046
:1037800002080604022070474079704700797047AC
:103790000420704700207047E00C03002DE9F04F33
:1037A00089B008AB002703F80D7D604C02901846E5
:1037B000A3680193039101F023FAD4E901E0D4F85E
:1037C000008000EB0E030133A3EB0803032B60D84A
:1037D00000F1010AAAEB080A04F5836C04F214460E
:1037E00000EA0E0901255CE8003F43EA05024CE8C7
:1037F000002191F0000FF6D156E8003F43EA0502A0
:1038000046E8002191F0000FF6D109F1030304EB23
:10381000830114F823309B07CB46724610D10B88E6
:1038200049889B0903EB911301331A4400EA020B08
:103830000BF1030304EB830114F823309B07EED054
:1038400004EB8B0B0232DBF80C30059303F003031F
:10385000012B65D0022B05D1BDF816309B0903332F
:1038600002EB930256E8003F03EA070146E8001B1B
:103870009BF0000FF6D143B10AEB0203032B626009
:1038800007D8964600EA0209ADE70AEB0E03032BC0
:10389000A9D908EA0000C31C08F1020114F823208A
:1038A0009DF8130042F0030204F82320216001F088
:1038B000CDF9019A029908F10103134004EB830347
:1038C00002EA080808F103080A0CDA6014F8283044
:1038D0000A0962F3820361F3C50304F8283034F85F
:1038E0002830039A6FF3891324F8283054F82830CD
:1038F00062F39F231A46012161F3010244F8283044
:1039000004F8282094F81C341BB906E0FFF7CCFD1E
:1039100018B1D4E900329A42F8D109B0BDE8F08F6D
:10392000BDF81430C3F383131A449BE770240020BE
:103930002DE9F04F89B008AB002703F80D7D644CEA
:1039400001901846A3680093CDE9021201F058F9DE
:10395000D4E901E0D4F8008000EB0E030133A3EBBF
:103960000803042B60D800F1010AAAEB080A04F549
:10397000836C04F2144600EA0E0901255CE8003F5E
:1039800043EA05024CE8002191F0000FF6D156E819
:10399000003F43EA050246E8002191F0000FF6D10E
:1039A00009F1030304EB830114F823309B07CB4692
:1039B000724610D10B8849889B0903EB91130133A0
:1039C0001A4400EA020B0BF1030304EB830114F821
:1039D00023309B07EED004EB8B0B0232DBF80C306C
:1039E000059303F00303012B6CD0022B05D1BDF826
:1039F00016309B09033302EB930256E8003F03EABB
:103A0000070146E8001B9BF0000FF6D143B10AEB1B
:103A10000203042B626007D8964600EA0209ADE76C
:103A20000AEB0E03042BA9D908EA0000C31C08F115
:103A3000030114F823209DF8130042F0030204F858
:103A40002320216001F002F900990198039D08F1FB
:103A5000020208F101030A400B4004EB820204EB6E
:103A6000830301EA080808F10308010CD560D96056
:103A700014F82830020962F3820360F3C50304F8E6
:103A8000283034F82830029A012161F3891324F890
:103A9000283054F8283062F39F231A4661F301025C
:103AA00044F8283004F8282094F81C341BB906E0A8
:103AB000FFF7FAFC18B1D4E900329A42F8D109B004
:103AC000BDE8F08FBDF81430C3F383131A4494E7B4
:103AD000702400202DE9F04F8BB00AAD00276A4C0E
:103AE00005F80D7D029005932846A3680193CDE962
:103AF000031201F085F8D4E901E0D4F8008000EB6E
:103B00000E030133A3EB0803052B60D800F1010A73
:103B1000AAEB080A04F5836C04F2144600EA0E09C5
:103B200001255CE8003F43EA05024CE8002191F0E2
:103B3000000FF6D156E8003F43EA050246E80021AF
:103B400091F0000FF6D109F1030304EB830114F89F
:103B500023309B07CB46724610D10B8849889B09BE
:103B600003EB911301331A4400EA020B0BF1030338
:103B700004EB830114F823309B07EED004EB8B0B8E
:103B80000232DBF80C30079303F00303012B74D0EF
:103B9000022B05D1BDF81E309B09033302EB9302C3
:103BA00056E8003F03EA070146E8001B9BF0000FC0
:103BB000F6D143B10AEB0203052B626007D89646A3
:103BC00000EA0209ADE70AEB0E03052BA9D908EAC2
:103BD0000000C31C08F1040114F823209DF81B0009
:103BE00042F0030204F82320216001F02FF801982D
:103BF000029D049E08F1020108F1030208F101038D
:103C000001400240034004EB810104EB820204EB1B
:103C1000830300EA0808CE6008F103080599D16023
:103C2000280CD86014F828302A0962F3820365F35F
:103C3000C50304F8283034F82830022262F38913CF
:103C400024F82830039A54F8283062F39F231A4648
:103C5000012161F3010244F8283004F8282094F887
:103C60001C341BB906E0FFF71FFC18B1D4E9003281
:103C70009A42F8D10BB0BDE8F08FBDF81C30C3F309
:103C800083131A448CE700BF70240020044BD3E94F
:103C900000239A4201D0FFF707BC0020704700BF05
:103CA0007024002030B4154DD5F81044002154B1D3
:103CB000237A8B4213D0234602E01A7A8A420ED02E
:103CC0005B68002BF9D10172D5F810347BB15B68C9
:103CD0004360D5F81034586030BC08467047013155
:103CE0000A29E4D14FF0FF31084630BC7047C5F8CF
:103CF0001004436030BC0846704700BF70240020A9
:103D000038B5084BD3F81044012583F81C543CB156
:103D10002368657220465B6898476468002CF7D179
:103D200038BD00BF702400202DE9F04784B01D4647
:103D30000C9C002394F80C802373EB7981460E468B
:103D40001746DBB1062F09D8DFE807F00430363D0F
:103D500046515E004946204600F0FCFFEB792BB946
:103D60002B7AEBB93649204600F0F4FF204600F0EC
:103D7000E5FF84F80C8004B0BDE8F0872B7AA888B2
:103D8000A979002B4FD12F4B53F821A00021FFF729
:103D9000C1FC524603462C49204600F0DBFFD1E728
:103DA0002A4A2B49204600F0D5FFDBE73268494616
:103DB000204600F0CFFFD1E74946D6E90023204650
:103DC00000F0C8FFCAE7B168D6E900232046009199
:103DD000494600F0BFFFC1E7D6E90201D6E900235A
:103DE000019100904946204600F0B4FFB6E7D6E9BD
:103DF0000371B068D6E900230291CDE90007494676
:103E0000204600F0A7FFA9E7D6E90410D6E9002371
:103E10000390D6E902070291CDE900074946204602
:103E200000F098FF9AE7FFF7A3FC0A4B084953F804
:103E30002020204600F08EFFA979A888A3E700BFC4
:103E4000580203005C020300440203005002030016
:103E5000400203000802030008295CD82DE9F04F56
:103E60001D46914600232A7B2B7383B099F80730B7
:103E7000019207460E46002B4ED0DFF808B1DFF85E
:103E80000881002405E03A5D013400F063FF082C4E
:103E900009D0A64241462846F5D85946013400F0DB
:103EA00059FF082CF5D13049DFF8E080DFF8E0B0A9
:103EB000284600F04FFF002411E017F804A00CF092
:103EC0002BF950445946437813F0970F14BF5246CC
:103ED0002E222846013400F03DFF082C08D0A642CF
:103EE00041462846E9D8013400F034FF082CF6D1C9
:103EF00099F8073013B999F808300BBB1B492846CD
:103F000000F028FF284600F019FF9DF804302B73BD
:103F100003B0BDE8F08F704799F80830B9F8040095
:103F200099F8061093B9124B53F821400021FFF77E
:103F3000F1FB224603460F49284600F00BFF9CE7A1
:103F40000D4A0E49284600F005FFD7E7FFF710FCA1
:103F50000B4B0A4953F82020284600F0FBFE99F845
:103F60000610B9F80400DEE7380203005802030027
:103F70005C020300440203005002030040020300FD
:103F800008020300340203002C0203004C02030069
:103F90003C02030070B5084D2B785BB1074E00243E
:103FA0003368012113F8340001F00AFF2B78013443
:103FB000A342F5D8002070BD60290020842900208C
:103FC00070B5094D2B7853B1084E0024336813F8AF
:103FD000340001F057FF2B780134A342F6D804488F
:103FE000BDE8704000F0D2BD602900208429002087
:103FF0006429002000B585B000230390194601AA6A
:1040000044F20100ADF80430029300F003F805B06B
:104010005DF804FB10B5FFF773FEFFF737FE0028CD
:10402000FBD1104C10492088000440F00100FFF73C
:10403000B5FB0E4B1B68DB0700D5FFDE20880C4963
:10404000000440F00200FFF7A9FBBFF34F8F0949BE
:10405000094BCA6802F4E0621343CB60BFF34F8F91
:1040600000BFFDE788230020D0020300F0ED00E050
:10407000DC02030000ED00E00400FA05F0B412F0E9
:10408000030412D14B1CDB000A4D0B4E0B4F347056
:104090009BB213442B600A4E0A4D0B4B28803A60AA
:1040A000347019802046F0BC704707242046F0BCCD
:1040B000704700BF8C29002088290020902900200B
:1040C0009829002094290020962900202DE9F04706
:1040D0002D4F3B888B4282B03CD3054602A84FF05F
:1040E000000800F8018D16460C4600F089FD274BAC
:1040F000274A284819781378B0F800C09DF80700BF
:10410000DBB2634538BF0133C9B238BF5FFA83F809
:10411000414523D092F800801378DFF88090DBB21D
:104120009C4586BF0133DBB200235FFA88F8137029
:1041300000F08CFDD9F800300FFA88F24FEAC20A7D
:1041400043F83260534405B174B90020988002B03E
:10415000BDE8F087092002B0BDE8F08700F076FDE9
:10416000042002B0BDE8F0870B4B38881B68294655
:1041700008FB003022460BF0EFFFD9F800309A44DC
:104180000020AAF80440E2E79429002098290020A2
:1041900088290020962900208C29002090290020C1
:1041A0002DE9F84F1B4C1C4D22782B789A4226D0D3
:1041B000DFF86CA0DFF86C90184FDFF86CB04FF0B0
:1041C00000082378DAF800203888D9F80060DBB2DC
:1041D0000FFA83FE02EBCE0103FB0060898852F8E0
:1041E0003E3098472378BBF80010DBB25A1C994246
:1041F000D2B206D9227023782A789A42E1D1BDE85A
:10420000F88F84F8008022782B789A42D9D1BDE8C3
:10421000F88F00BF982900208829002094290020C9
:10422000902900208C29002096290020F8B5204AEA
:10423000204B0024C2F84041C2F84441C2F8484132
:10424000C2F84C41C2F80041C2F804411B6833B3C4
:104250001949D2F804550A68AD1A1A6825F07F4545
:10426000AA4227460DD8197CDE69AD1A144419B14B
:104270001F74D3E9052090471EB133461A68AA423D
:10428000F1D90E490E4A0B7812789A4208D00D499E
:104290000D4A41F823404FF48013C2F80031F8BDB5
:1042A000531CDBB2022B08BF00230B70EFE700BFEB
:1042B00000100140BC2A0020B82A0020B52A0020A6
:1042C000B42A0020AC2A002000E100E02DE9F04FE4
:1042D000AF48B04AB04913780978D0F80090AF4899
:1042E00089B000680290994200F04E810133DBB240
:1042F000022B08BF00231370A94A52F82300A44BD5
:1043000009EB000727F07F471F60029B00252A4624
:104310002C46AC46B3B11968814200F24D81DD688C
:10432000C3F800C0401A0C44D9693DB109EB04063A
:1043300026F07F46C3E90165DA611A460B4601257E
:10434000002BE8D1002D40F09B81012302990693B8
:10435000B946944B944C1B7805934FF000084B469C
:10436000CDF81C80CDF80C804FF0010EC1468C4674
:104370009B4642B3D2E901651346D2698B48A6EB4E
:104380000B0121F07F41814259D829441960002056
:1043900083F810E0C3E90100D861BCF1000F72D0CE
:1043A000DCF8000088425FD2664603E02868884255
:1043B00063D22E46F569091A002DF7D11960DD6127
:1043C000F361002AD6D1CA46CDF804B094F8019022
:1043D00021784FF0000B1646894576D0084600EB51
:1043E000400004EBC0004A1CA378D1B202792170CE
:1043F0008B4204BF84F800B00021022A836853D0A6
:10440000032A44D0012AE7D11F7C002FE4D1324691
:10441000C6685E6005699D604169D960816999617E
:104420000599DDF804B0D1460029A7D03E46A6EB99
:104430000B015E485F6021F07F418142A5D9ABEB63
:10444000060121F07F41A94202D2691A19609EE754
:10445000002183F810E0C3E900119960D961BCF133
:10446000000F10D0DCF80000411ACCF800104FF01B
:104470000108C3F81CC09C467BE7401A28601960FD
:10448000DD61F3619DE79C464FF0010871E7BCF1E7
:10449000000FA1D0624600231374D269002AFBD119
:1044A00094464FF0010891E7BCF1000F09D0634535
:1044B000624603D192E083424FD00246D069002881
:1044C000F9D183F810B0894588D1C346DDF804904E
:1044D000D046BBF1000F40F0D780079B002B40F087
:1044E0001A82B8F1000F03D02E4B9DF814201A70D9
:1044F0002A4B1A68039B1BB9029B9A4200F0C880A2
:10450000002A00F0CC802A48214BD0F804151B6803
:10451000284C15682678CA1A22F07F420332002EF2
:1045200000F0A68195422CBF5B199B18204823F010
:104530007F43C0F84035D0F80425521A5B1A22F0A8
:104540007F4223F07F4303329A4200F24781154AAB
:104550000023137009B0BDE8F08F934236D0674650
:1045600004931D46E8692D68D06128B102682A4489
:104570000260217894F801906745A2D00122BC46E0
:10458000039283F810B09EE7002206920146E0E60F
:10459000B82A0020B42A0020B52A0020BC2A002016
:1045A000AC2A0020A82A00209C290020FEFF7F00C2
:1045B00000100140A92A0020002D40F0B081091A06
:1045C00019600123B94606930299C2E60493DCF808
:1045D0001C7037B14FF00108049DC3E7CDF810C03F
:1045E000F5E77748774DC0F808E077484FF02F0897
:1045F000006800BF00BF00BF00BF00BF00BF00BF1A
:1046000000BFA8422FD000BF00BF00BF00BF00BF47
:1046100000BF00BF00BF00BF00BF00BF00BF00BFA2
:1046200000BF00BF00BF00BF00BF00BF00BF00BF92
:1046300000BF00BF00BF00BF00BF00BF00BF00BF82
:1046400000BF00BF00BF00BF00BF00BF00BF00BF72
:1046500000BF00BF00BF00BF00BF00BF00BF00BF62
:1046600000BF00BF00BFB8F10108C2D14FF0010A7E
:104670000197CDF814A0CDF81CA0D046049D71E799
:10468000524902930B6060E6504BC3F800C024E728
:10469000069B002B3FF45BAF002A7FF434AF484900
:1046A0004B4B494E474C4FF480304FF400370125B7
:1046B000C3F88070C1F848032F23C1F808034D6088
:1046C00030681E4600BF00BF00BF00BF00BF00BF74
:1046D00000BF00BFA0422FD000BF00BF00BF00BF7F
:1046E00000BF00BF00BF00BF00BF00BF00BF00BFD2
:1046F00000BF00BF00BF00BF00BF00BF00BF00BFC2
:1047000000BF00BF00BF00BF00BF00BF00BF00BFB1
:1047100000BF00BF00BF00BF00BF00BF00BF00BFA1
:1047200000BF00BF00BF00BF00BF00BF00BF00BF91
:1047300000BF00BF00BF00BF013EC3D18D6025494F
:104740000A6000BF00BF00BF00BF00BF00BF00BFC6
:1047500000BFA0422FD000BF00BF00BF00BF00BFFE
:1047600000BF00BF00BF00BF00BF00BF00BF00BF51
:1047700000BF00BF00BF00BF00BF00BF00BF00BF41
:1047800000BF00BF00BF00BF00BF00BF00BF00BF31
:1047900000BF00BF00BF00BF00BF00BF00BF00BF21
:1047A00000BF00BF00BF00BF00BF00BF00BF00BF11
:1047B00000BF00BF00BF013BC3D1074B1A70C6E664
:1047C000001001400024F400AC210020BC2A00208D
:1047D00000E100E0B82A0020A92A0020D0F8043522
:1047E000514AC0F84035126850492F2300BF00BF1E
:1047F00000BF00BF00BF00BF00BF00BF8A422FD074
:1048000000BF00BF00BF00BF00BF00BF00BF00BFB0
:1048100000BF00BF00BF00BF00BF00BF00BF00BFA0
:1048200000BF00BF00BF00BF00BF00BF00BF00BF90
:1048300000BF00BF00BF00BF00BF00BF00BF00BF80
:1048400000BF00BF00BF00BF00BF00BF00BF00BF70
:1048500000BF00BF00BF00BF00BF00BF00BF00BF60
:10486000013BC3D1324B4FF40032C3F800216EE656
:104870002F4EDFF8B4E0DFF8B4C04FF48037C0F853
:104880004473C0F804734FF40037C6F88071376082
:1048900001260660DEF800702F2000BF00BF00BFB9
:1048A00000BF00BF00BF00BF00BF67452FD000BFE3
:1048B00000BF00BF00BF00BF00BF00BF00BF00BF00
:1048C00000BF00BF00BF00BF00BF00BF00BF00BFF0
:1048D00000BF00BF00BF00BF00BF00BF00BF00BFE0
:1048E00000BF00BF00BF00BF00BF00BF00BF00BFD0
:1048F00000BF00BF00BF00BF00BF00BF00BF00BFC0
:1049000000BF00BF00BF00BF00BF00BF00BF013835
:10491000C3D1267006E6074BC3F80090E1E5064CCC
:10492000029323604BE600BFAC2100200024F4007A
:1049300000E100E0B82A0020BC2A0020F0B4554B6A
:10494000554A564E564C4FF480304FF400310125F5
:10495000C2F88010C3F848032F21C3F808035D6034
:1049600030680E4600BF00BF00BF00BF00BF00BFE1
:1049700000BF00BFA0422FD000BF00BF00BF00BFDC
:1049800000BF00BF00BF00BF00BF00BF00BF00BF2F
:1049900000BF00BF00BF00BF00BF00BF00BF00BF1F
:1049A00000BF00BF00BF00BF00BF00BF00BF00BF0F
:1049B00000BF00BF00BF00BF00BF00BF00BF00BFFF
:1049C00000BF00BF00BF00BF00BF00BF00BF00BFEF
:1049D00000BF00BF00BF00BF013EC3D19D6000BF4C
:1049E00000BF00BF00BF00BF00BF00BF00BFA042AC
:1049F0002FD000BF00BF00BF00BF00BF00BF00BF7F
:104A000000BF00BF00BF00BF00BF00BF00BF00BFAE
:104A100000BF00BF00BF00BF00BF00BF00BF00BF9E
:104A200000BF00BF00BF00BF00BF00BF00BF00BF8E
:104A300000BF00BF00BF00BF00BF00BF00BF00BF7E
:104A400000BF00BF00BF00BF00BF00BF00BF00BF6E
:104A500000BF0139C3D1134E134C1449144D154FE7
:104A600000203070206008704FF480140B26E02185
:104A70002880AE703870104DC2F8804182F814134F
:104A80001460C3F8080582F81113D3F804352B60BD
:104A9000F0BC70470010014000E100E0AC210020B4
:104AA0000024F400A92A0020BC2A0020B42A0020F7
:104AB0009C290020B52A0020B82A0020074B9B78AB
:104AC0004BB132B128B10368187C20B959745A61CE
:104AD0007047072070470820704700BF9C290020BE
:104AE0002DE9F047264CA37882B0002B3CD000285B
:104AF0003AD004293CD94369002B35D0814602A81D
:104B000099F811300026012B00F8016D0CBF884682
:104B1000B04617468A4600F073F86378A178227889
:104B20009DF807005D1CEDB2A94208BF3546AA42B8
:104B300022D003EB430304EBC3030121114AC3F862
:104B400008901971D2F804256570C3E9032AC3E9F6
:104B5000058700F07BF80C4B4FF480123046C3F809
:104B6000002102B0BDE8F087082002B0BDE8F08760
:104B7000072002B0BDE8F08700F068F80420F0E7F5
:104B80009C2900200010014000E100E0F0B51A4C23
:104B9000A37883B043B338B343692BB3064602A866
:104BA000002500F8015D357400F02AF86278A778D6
:104BB00021789DF80700531CDBB29F4208BF2B46AB
:104BC000994214D002EB420204EBC2020221966029
:104BD0001171637000F03AF8084B4FF480122846C8
:104BE000C3F8002103B0F0BD082003B0F0BD00F011
:104BF0002DF80420F9E700BF9C29002000E100E027
:104C000070B4EFF3108472B60D4B9A68AAB90D49CF
:104C10000D4E01259D60D1F8805035401D60C1F8D2
:104C20008060D1F884505D604FF0FF33C1F884306C
:104C3000027004B962B670BC704701230370F8E7D4
:104C4000F02D002000E100E0FC06FFBD094B9A6852
:104C50007AB170B910B4EFF3108272B606491C68CD
:104C60000C605C684C60986002B962B65DF8044BF9
:104C700070477047F02D002000E100E0B8B130B47B
:104C8000D0E90112521A0468D2B2531E2160DBB27D
:104C900042B101680A685C1E551C0D601370E3B2D6
:104CA000FF2BF6D103680020187130BC70470E202E
:104CB000704700BFF0B583B002AB002503F8015D7B
:104CC00004461846FFF79CFFD4E900311A688A426F
:104CD00010D9511E19602168A3680F6812F8015C91
:104CE0000A79268AE068DB1BDBB29A4206FB0505DF
:104CF00038BF0B719DF80700FFF7A8FF284603B0E7
:104D0000F0BD00BF30B583B002AB002203F8012D27
:104D1000054618460C46FFF773FF2A681368591CAE
:104D20001160E9682A8A641AB4FBF2F41C709DF8D9
:104D30000700FFF78BFF03B030BD00BF826842B1B0
:104D400010B5044643690168006998470023A360D1
:104D500010BD70470EB400B582B0039929B102AA04
:104D600004AB42F8043D00F08BF802B05DF804EBB0
:104D700003B070472DE9F84F884690451746054621
:104D80001E46DDE90AB175D343464FF00109B3FB76
:104D9000F7F39F4209F10109F9D9B14538BFB1468E
:104DA00011F0010AAA6802D1BBF1000F43D101241E
:104DB00002E0013E07FB04F4012EFAD8B8FBF4F13F
:104DC0008F42F7D92D4E05E0B4FBF7F4A4B1B8FB40
:104DD000F4F1AA68705C531CAB602B689854D5E959
:104DE00001329A4204FB1188EED32846FFF7A6FF52
:104DF000B4FBF7F4002CEAD1BAF1000F15D0BBF1E7
:104E0000000F12D0CB4510D92024AB682A68591C5A
:104E1000A960D454D5E901329A420BF1FF3B06D286
:104E2000BBF1000F01D0CB45EFD1BDE8F88F28468C
:104E3000FFF784FFF4E78B0717D42024CB45B6D9BE
:104E40002B68511CA9609C54D5E901329A420BF1A0
:104E5000FF3B05D2BBF1000FA9D0CB45F0D1A6E7AF
:104E60002846FFF76BFFAA68F4E7002E0CBF30243A
:104E70002024E3E74FF001098FE700BFF4020300AD
:104E8000002900F0F4812DE9F04F054685B09246E7
:104E90000C460B78DFF8A8B501E0237893B1013414
:104EA00083B1252B15D0AA682968501CA8608B54A3
:104EB000D5E901329A42F0D32846FFF73FFF237825
:104EC000002BECD12B7B002B40F0148105B0BDE80A
:104ED000F08F2146002711F8012B2D2A00F0E180E8
:104EE000302A00F0E2802B2A00F0D2802A2A00F03B
:104EF000E080A2F13006F3B2092B03D9B8E1A3F1A7
:104F000030060146084606EB860310F8012BA2F195
:104F10003004092C02EB4303F1D92E2A00F0D5808E
:104F20000023013101E011F8012B02F0FB00682899
:104F30000C46F8D0253A532AAFD801A151F822F0F7
:104F4000015102009B4E02009B4E02009B4E02004C
:104F50009B4E02009B4E02009B4E02009B4E0200A5
:104F60009B4E02009B4E02009B4E02009B4E020095
:104F70009B4E02009B4E02009B4E02009B4E020085
:104F80009B4E02009B4E02009B4E02009B4E020075
:104F90009B4E02009B4E02009B4E02009B4E020065
:104FA0009B4E02009B4E02009B4E02009B4E020055
:104FB0009B4E02009B4E02009B4E02009B4E020045
:104FC0009B4E02009B4E02009B4E02009B4E020035
:104FD0009B4E02009B4E02009B4E02009B4E020025
:104FE0009B4E02009B4E02009B4E02009B4E020015
:104FF0009B4E02009B4E02009B4E02009B4E020005
:105000009B4E02009B4E02009B4E02001B51020071
:105010009B4E02009B4E02009B4E02009B4E0200E4
:105020009B4E02009B4E02009B4E02009B4E0200D4
:105030009B4E02009B4E0200355102005751020068
:105040009B4E02009B4E02009B4E02009B4E0200B4
:10505000575102009B4E02009B4E02009B4E0200E5
:105060009B4E02009B4E02009B4E0200A751020085
:105070009B4E02009B4E02001B5202009B4E020000
:10508000555202009B4E02009B4E02001B51020033
:1050900047F004070C46214611F8012B2D2A7FF416
:1050A0001FAF47F001070C46F5E747F002070C4633
:1050B000F1E7DAF800301A1DCAF8002062781E689D
:1050C0002E2A04F102007FF42BAF4A78A2F13003BC
:1050D000092B00F25081002303EB830302EB43030F
:1050E00010F8012FA2F130010929A3F13003F3D9FF
:1050F000014616E7284605B0BDE8F04FFFF71EBE93
:10510000AB682A68591CA9604FF02501D154D5E934
:1051100001329A42FFF4C1AECEE6DAF80020111D4A
:10512000CAF8001011682846CDE900671022FFF781
:1051300021FEB2E6DAF80020131DCAF80030AB6891
:1051400029681278581CA860CA54D5E901329A42DD
:10515000FFF4A3AEB0E6DAF80020111DCAF8001083
:10516000D2F8008088EAE872A2EBE872092A4FF0D0
:10517000010107DDB148A0FB0202D208092A01F1B2
:105180000101F7DC994238BF1946894607F002024F
:10519000002E71D12AB1002B00F04B81FA0700F1EB
:1051A0008D8000268AE0DAF80020131DCAF800304E
:1051B000AB6829681768581C3022A860CA54D5E922
:1051C0000123934280F02C812A68581C7821A86022
:1051D000D154D5E90123934280F01D810F2F03D9CB
:1051E0003A4612090F2AFCD84FF0805603E03609E0
:1051F0003FF453AEAB682968B7FBF6F2581CA860C1
:105200001BF80200C854D5E90131994206FB127718
:10521000EDD32846FFF792FDE9E7DAF800301A1DD2
:10522000CAF80020D3F80080FB077ED54746A7EBDD
:10523000080917F8013B002B5DD0AA682968501CAB
:10524000A8608B54D5E901329A42F0D32846FFF783
:1052500075FDECE7DAF80020111DCAF8001011689E
:105260002846CDE900670A22FFF784FD15E670475E
:1052700008460026214650E6B8F1000F01DB78070A
:1052800000D5013E02B1CBB1F90717D4002E88D06A
:10529000B14513D220220393A9682B68481CA8604B
:1052A0005A54D5E90131994206F1FF365DD2002EFC
:1052B00000F0C180B145EFD1039B4E46B8F1000F1D
:1052C000C0F296807A070AD5A9684A1CAA602A68A3
:1052D0002B205054D5E90121914280F0968007F0AF
:1052E0000302022A5FD0CDE9006741460A22284620
:1052F000FFF740FDD1E54E457FF6CFAD202705E015
:105300004E453FF4CAAD002E3FF4C7ADAB682A68E6
:10531000591CA960D754D5E901329A4206F1FF36EB
:10532000EED32846FFF70AFDEAE7B8F1000F24D0D4
:1053300040460AF024FF0746BE4220D9FEB14FF096
:10534000200902E0BE421AD0CEB1AB682A68591CCF
:10535000A96002F80390D5E901329A4206F1FF36BE
:10536000F0D32846FFF7EAFCECE728460292FFF765
:10537000E5FC029A9BE70146D2E54746DCE708F1E7
:10538000FF3818F8013F002B3FF487ADAA68296861
:10539000501CA8608B54D5E901329A42F1D32846BB
:1053A000FFF7CCFCEDE7002B9DD1002E3FD0B1459F
:1053B00099D2029323464C46B1461E46AA682B68F2
:1053C000501C4FF03001A8609954D5E901329A423F
:1053D00009F1FF3908D2B9F1000F26D04C45EDD1C3
:1053E0003446029B4E467EE72846FFF7A7FCF2E7CD
:1053F000A9684A1CAA602A682D205054D5E90121C9
:105400009142C8F10008FFF46AAF28460293FFF703
:1054100095FC029B63E72846FFF790FCAB68DDE64E
:105420002846FFF78BFCAB68CEE6029B344600268D
:1054300059E71E4642E7039BB3E600BFCDCCCCCC78
:10544000F4020300FFF71ABC2DE9F041058ACE1CD7
:10545000043D2E440746B6FBF5F6FFF72BFC78B368
:10546000F6B24FF48073013E0446C5800760838026
:1054700027D08046002509E06379AE4203F101039D
:105480006371C8F80000076080461AD03846FFF7FD
:1054900011FC01350028EFD16679721E14D0234625
:1054A000013082421B68FBD11F684EB10025236882
:1054B0002146013538461C46FFF724FCAE42F6D1A2
:1054C00000242046BDE8F0812768EFE710B40430DF
:1054D000012350E8002F02EB030140E8001494F090
:1054E000000FF6D15DF8044B704700BF0146021D66
:1054F000F8B5012052E8004FA4EB000342E8003564
:1055000095F0000FF6D113F0FF0300D0F8BD4E79EF
:10551000701E11D00A46013398421268FBD11768F9
:10552000002EF3D000240D6801343846FFF7EAFB63
:10553000A6422946F7D1F8BD0F68F3E72DE9F843F5
:105540000446181DE688B0FBF6F30F46904606FBAE
:10555000130013B1013B2468FCD1351A454528BF1F
:105560004546B8F1000F15D04FF000090430A8EB04
:10557000050820442A4607EB09010AF0EDFD4645DF
:10558000A944246835464FF0000028BF4546B8F1CD
:10559000000FEBD1BDE8F8832DE9F843C68804334A
:1055A00004460F46B3FBF6F0904606FB103110B1EF
:1055B00001382468FCD1751A454528BF4546B8F125
:1055C000000F15D04FF0000904312144A8EB050865
:1055D0002A4607EB09000AF0BFFD4645A9442468A6
:1055E00035464FF0000128BF4546B8F1000FEBD11A
:1055F000BDE8F88301600B6843604A68934204BFCA
:1056000000234360704700BF436843B1026891685C
:105610000B4443605268934204BF002343607047C9
:1056200030B4184DA5F1F002AB1ADB1003EBD373C5
:105630005B1002EBC30152F83330984228BF0C468E
:1056400005D311E052F8333098420CD221468B1A20
:10565000DB1003EBD3735B108A4202EBC304F1D37C
:10566000094830BC70470D46984204D904F108023D
:10567000AA42D9D3F4E76068034B002808BF184654
:10568000EFE700BF140403001003030010B400236D
:10569000012401E0202B0AD004FA03F2024299B25D
:1056A00003F10103F6D008465DF8044B70474FF64E
:1056B000FF7108465DF8044B704700BFA0B199B177
:1056C00030B40238002402E00134202C0AD030F833
:1056D000025F9542F8D1012202FA04F40A6823B16C
:1056E00022430A6030BC7047704722EA04020A6015
:1056F00030BC704770B49DF80C60D0B1C9B1C2B174
:105700000238002402E00134202C12D030F8025F6D
:105710009D42F8D1012301EB820203FA04F4E04335
:10572000043A04393EB951F8043F034091420B60FA
:10573000F9D170BC704751F8043F234391420B608C
:10574000F7D051F8043F234391420B60F3D1F0E7C7
:10575000F0B491B100252B46012606FA03F4144259
:1057600005D000EB450431F81370A78001350133F3
:10577000202BF2D10560F0BC70470D460560F0BCEF
:10578000704700BF044B195C4FF0A04201238B40CF
:10579000C2F80C35704700BF1C070300044B195CAE
:1057A0004FF0A04201238B40C2F80835704700BF7C
:1057B0001C07030030B44FF0A04303224FF4003520
:1057C0004FF480244FF400204FF48011C3F8442795
:1057D000C3F84827C3F84C27C3F85027C3F8085527
:1057E000C3F80845C3F80805C3F8081530BC70476E
:1057F00060B910B5064CA3683BB1D3E90023002083
:10580000A2609847A368002BF7D110BD704700BF76
:10581000C02A002010B5012882B029D022D3032845
:105820001ED10721002000F007F902A80023264C12
:1058300000F8013DFFF7E4F9E368013BE360E3684A
:1058400053B9224B01221A604FF08042D2F818342B
:1058500013F48033FAD1A3709DF80700FFF7F6F92F
:1058600002B010BD1A4B0122C3F8802002B010BD57
:1058700002A80023144C00F8013DFFF7C1F923787A
:1058800053B1E3689DF8070001330122E360A27081
:10589000FFF7DCF902B010BD0D4A6360A36023611D
:1058A000E360106810F001000AD00AF0A1FA20B9F4
:1058B0004FF080430122C3F8182501232370E0E74D
:1058C000072100F0B9F8F0E7C02A00200C000040E2
:1058D00000E100E010B5114C2378E3B9104A636091
:1058E000E3601068A36010F0010023610BD00AF0A0
:1058F0007FFA20B94FF080430122C3F81825012315
:105900002370002010BD072100F096F80AF070FA0D
:105910000028F4D1EEE7852010BD00BFC02A00208A
:1059200000E100E030B5224CA37883B0054693B186
:1059300010B143680120984702A8002300F8043DF5
:10594000FFF75EF9E3689DF804000133E360FFF7B9
:105950007DF903B030BD02A803F0FF0200F8052D69
:10596000FFF74EF965B1226942B1954208D013465E
:1059700001E09D4204D01B68002BFAD12A6025610A
:10598000E36863B90B4A0C491360136801934FF045
:10599000804202200123019DC2F804030B60E368EA
:1059A0009DF803000133E360FFF750F903B030BD09
:1059B000C02A0020040100400800004010B51B4B25
:1059C0001A6882B0AAB100221A601B6800934FF0D7
:1059D00080430122164C0099C3F80823A368627023
:1059E0003BB1D3E900230020A2609847A368002BB5
:1059F000F7D1104B1A68B2B100221A601B680193EC
:105A00004FF0804302220A4C0199C3F8082323690E
:105A10000122A2703BB1D3E9002301202261984703
:105A20002369002BF7D102B010BD00BF0001004078
:105A3000C02A0020040100404901002810B4C9B266
:105A4000C3B215DB00F1604202F5614282F8001337
:105A50004009800000F1604000F5614003F01F0242
:105A600001239340C0F8803103605DF8044B704718
:105A7000024A03F00F0422441176E9E7FCEC00E04F
:105A800030B5194C94F8545083B055BB4FF0FF33E8
:105A900007210620C4E90033C4E90233C4E9043312
:105AA000C4E90633C4E90833C4E90A33C4E90C3352
:105AB000C4E90E33C4E91033C4E912332365FFF798
:105AC000BBFF0A4B0A4A1D601B68019301984FF007
:105AD00000430121284684F85410C2F8043303B06F
:105AE00030BD082003B030BDD42A00207C610040C6
:105AF0000060004070B43A4B1A1892F930400134FB
:105B000037D18C78E4B11A6801325ED05A6801321C
:105B10005DD09A6801325CD0DA68013253D01A69DC
:105B2000013258D05A69013257D09A69013223D0D4
:105B3000DA69013208BF07221FD0042070BC704709
:105B4000FE2382F830304A780123012A4FF0A04228
:105B500003FA00F30CBFC2F80835C2F80C3500F5A3
:105B6000E0704FF0A043032243F82020002070BCD7
:105B70007047082070BC70470622940004F18044EE
:105B800004F5C0441D18002643F8226085F8302033
:105B9000D4F810350A784D7823F4981323F4F85389
:105BA00012042D05C4F8103505F4801502F44032B6
:105BB00003022A4303F4F853D4F8105513432B433C
:105BC000C4F81035BFE70322D7E70022D5E701224A
:105BD000D3E70222D1E70422CFE70522CDE700BFB9
:105BE000D42A002001234FF0A04203FA00F0C2F8AB
:105BF0000805704701234FF0A04203FA00F0C2F8F5
:105C00000C0570474FF0A0410122D1F8043502FA8B
:105C100000F020EA03020340C1F80825C1F80C3562
:105C2000704700BFF0B4654B1C1894F93050002D3C
:105C300066DACE78002E5DD11D6A013500F0AD80A8
:105C400009240C2553F8247001375DD004F1010CB0
:105C500053F82C70013700F0AA8004F1020CAC4517
:105C600045D253F82C70013700F0A18004F1030CE9
:105C7000AC453CD253F82C70013700F0988004F109
:105C8000040CAC4533D253F82C70013700F08F80F0
:105C900004F1050CAC452AD253F82C70013700F002
:105CA000868004F1060CAC4521D253F82C700137E4
:105CB0007DD004F1070CAC4519D253F82C70013794
:105CC00075D004F1080CAC4511D253F82C70013793
:105CD0006DD004F1090CAC4509D253F82C70013792
:105CE00065D00A34AC4202D2DC6A01340BD0042005
:105CF000F0BC70471D6801355BD001240825A1E781
:105D00000820F0BC70470B241F1865B243F824200C
:105D100087F83050002E46D08A78B2B1820002F166
:105D2000A042D2F8004724F00204C2F80047CA7823
:105D30000978B2B9083D2B44104693F8502042EA46
:105D4000811183F85010F0BC70474C7800F5E07278
:105D50004FF0A046A40046F82240CA780978002AED
:105D6000E8D0AB0003F1804303F5C0430002D3F851
:105D7000102522F4473222F44072C3F8102509049A
:105D800000F4F850D3F8102501F4403101431143D9
:105D9000C3F810150020F0BC7047082684F8306066
:105DA0001A62354634461C4484F84800B4E7644619
:105DB000AAE700251A6084F83050ADE7D42A002005
:105DC00070B42E4D2E1883B096F93030072B1CDDA1
:105DD0002B4493F848309B09032B41D0012B14BF6F
:105DE0004FF440314FF40031800000F1A040D0F872
:105DF000002722F44032C0F80027D0F800370B43C8
:105E0000C0F8003703B070BC7047DAB2072AF9D87F
:105E1000980000F1804000F5C04003F14002D0F846
:105E20001045920092B244F0010402F18042C0F8A1
:105E3000104502F5C04200200190019C106000292D
:105E4000E0D096F9302055F82220002ADAD001223D
:105E50000B4902FA03F3C1F8043303B070BC704776
:105E60004FF0A043D3F81035C34013F0010F0CBF1F
:105E70004FF400314FF44031B6E700BFD42A002080
:105E800000600040164B034493F93030072B18DCB8
:105E9000DAB2072A14D810B49A0002F1804202F54F
:105EA000C042104CD2F81005012120F0010001FA87
:105EB00003F3C2F81005C4F808335DF8044B7047CB
:105EC0007047800000F1A040D0F8003723F4403341
:105ED000C0F80037D0F80037C0F80037704700BF6F
:105EE000D42A0020006000402DE9F04186B0002354
:105EF000A14A01931668012E00F054811E469F4B63
:105F00001A68012A00F05D819D4B1A68012A00F091
:105F10006A819C4B1A68012A00F077819A4B1A68B3
:105F2000012A00F08481994B1A68012A00F09181BE
:105F3000974B1A68012A00F09E81964B1A68012A35
:105F40000CD0954B1B68012B00F0A58116F0FF0FBC
:105F500015D1002E30DB06B0BDE8F0818F4AD2F8B3
:105F600004231706EDD500221A601A6804926033E4
:105F7000049A1B68012B46F0800600F08C81884F44
:105F800000240125A30003F18043354203F5C043FB
:105F90004FEA45050BD0D3F8100557F82420D3F865
:105FA0001015C0F30420C1F3014102B19047013440
:105FB000082CE7D1002ECEDA00224FF0FF33CDE9D6
:105FC0000223774C012602AF94F950305D1C2CD08F
:105FD000DBB223F0C00006AA4FEAD00C02EB0C0E95
:105FE00003F007021EF80C1C06FA02F211421CD044
:105FF0002518990995F9303054F82330002B00F01A
:106000009881032900F098814FEA800C0CF1A04C94
:106010001EF8145CDCF800E71540CEF3014E40F0AA
:106020005C81BEF1030F00F0DE81002594F9513050
:10603000581C2DD0DBB223F0C00006AA4FEAD008CE
:1060400002EB080E03F007011EF80C2C06FA01FC07
:1060500012EA0C0F1CD02218990992F9303054F82A
:106060002330002B00F05B81032900F05B8182006C
:1060700002F1A0421EF8148CD2F800E718EA0C0FC7
:10608000CEF3014E40F03681BEF1030F00F0A68141
:1060900094F95230591C2DD0DBB223F0C00006AA6F
:1060A0004FEAD00802EB080E03F007011EF80C2C93
:1060B00006FA01FC12EA0C0F1CD02218990992F979
:1060C000303054F82330002B00F03C81032900F0DD
:1060D0003C81820002F1A0421EF8148CD2F800E745
:1060E00018EA0C0FCEF3014E40F0E380BEF1030F2F
:1060F00000F06E8194F953305A1C2DD0DBB223F09E
:10610000C00006AA4FEAD00802EB080E03F0070110
:106110001EF80C2C06FA01FC12EA0C0F1CD02218F7
:10612000990992F9303054F82330002B00F0ED80BB
:10613000032900F0ED80820002F1A0421EF8148CC9
:10614000D2F800E718EA0C0FCEF3014E40F0BC8005
:10615000BEF1030F00F00081002D3FF4FCAE4FF0C4
:10616000A043019AD3F8103593423FF4F4AE029A5B
:106170000193039228E700BF0061004004610040E2
:10618000086100400C610040106100401461004053
:10619000186100401C6100407C61004000600040CC
:1061A000D42A00209A49D1F8041311F0010170D0CB
:1061B000136013680493049B964B1A68012A7FF4BA
:1061C000A3AE934AD2F8042397077FF59DAE002231
:1061D0001A601B680493049B8F4B1A68012A46F0CF
:1061E00002067FF496AE8A4AD2F8042355077FF55B
:1061F00090AE00221A601B680493049B874B1A68B8
:10620000012A46F004067FF489AE814AD2F80423BD
:1062100014077FF583AE00221A601B680493049B69
:106220007F4B1A68012A46F008067FF47CAE784A54
:10623000D2F80423D0067FF576AE00221A601B68E0
:106240000493049B774B1A68012A46F010067FF4EA
:106250006FAE6F4AD2F8042391067FF569AE002233
:106260001A601B680493049B6F4B1A68012A46F05E
:1062700020067FF462AE664AD2F8042352067FF508
:106280005CAE00221A601B680493049B46F0400633
:1062900053E60E4633E6654B00221A601B680593F1
:1062A0004FF0A043059AD3F81035019346F000460D
:1062B0004CE6BEF1020F7FF41DAF032963D0002B23
:1062C0003FF418AF984715E7BEF1020F7FF444AFD3
:1062D000032969D0002B54D13EE7BEF1020F7FF4B1
:1062E000A4AE032900F091800025002B3FF49EAE60
:1062F00098479BE6BEF1020F7FF4CAAE032956D041
:10630000002B3FF4C5AE9847C2E603297FF424AFC3
:1063100017F8082042EA0C0207F808200BE70329C7
:106320007FF4B6AE17F8082042EA0C0207F80820FE
:106330009DE603297FF479AE17F80C50154307F852
:106340000C5061E603297FF4D5AE17F8082042EA25
:106350000C0207F80820BCE60329BBD14FF4003E2D
:10636000D2F800C72CF4403CC2F800C7D2F800C7EE
:1063700001354CEA0E0CEDB2C2F800C7002B3FF419
:10638000EEAE9847E8E64FF4403ED2F800C72CF452
:10639000403CC2F800C7D2F800C701354CEA0E0CE9
:1063A000EDB2C2F800C78AE74FF4403ED8E74FF499
:1063B000403ED2F800C72CF4403CC2F800C7D2F8E7
:1063C00000C701354CEA0E0CEDB2C2F800C797E7E2
:1063D00003297FF474AF4FF4003ED6E703298FD131
:1063E0004FF4003EE5E703297FF47FAF4FF400351B
:1063F000DCF8002722F44032CCF80027DCF8002734
:106400002A43CCF8002701256FE74FF44035EFE72A
:106410000060004004610040086100400C610040E1
:106420001061004014610040186100407C61004030
:10643000F0B506796F4C7601A31987B0DD7E002D8B
:1064400040F089804D7F1D770B685D1C0CD00125C5
:106450004FF0A04705FA03F3C7F808350B6803F5BA
:10646000E073032547F823504B685F1C06D003F503
:10647000E0734FF0A045002745F8237003790568C5
:106480008F6904EB43131B7FC5F82475002B46D09E
:106490000F7D4B7D05683B43C5F86C35D1E9007530
:1064A0000368C3F80C75C3F814550B7D012B7FD01E
:1064B000A31905465A600B69A351EAB10379097F14
:1064C000026804EB43131B7F002B4BD1C2F81C3135
:1064D000D2F81C012A6800900098C2F84431D2F822
:1064E00044212B680192444A0198C3F80423286888
:1064F00040F30730FFF7A0FA2B792A6804EB431327
:106500001B7F5BB30823C2F800353444002001230D
:10651000E376E0752076A075A07607B0F0BD91F81F
:1065200014C04D7D076845EA0C05C7F86C55D1E9E4
:1065300000C70568C5F81475C5F80CC50D7D012D9B
:10654000B6D18D686F1C3DD005F5E0754FF0A047C2
:1065500047F8253036E0082007B0F0BD0423C2F824
:106560000035D2E70023C2F81031D2F810012A68B2
:1065700002900298C2F82031D2F820012A680390D4
:106580000398C2F82431D2F824012A6804900498B0
:10659000C2F84431D2F844212B680592174A059875
:1065A000C3F80423286840F30730FFF745FAA3E750
:1065B0008B685D1C06D003F5E0734FF0A045002703
:1065C00045F82370CB685D1C0DD001254FF0A04726
:1065D00005FA03F3C7F80835CB6803F5E073032524
:1065E00047F82350CB6805688F68C5F80835C5F8AB
:1065F00010755DE72C2B00208000020010030200C4
:10660000F0B404793C4B016864011A19127F002A26
:106610006DD00022C1F800251A1901795568026869
:10662000B5B103EB4111097F002963D13349C2F8A9
:1066300008130268324E120B51B24909203102F0A0
:106640001F02012505FA02F246F8212001790268AD
:10665000D2F80C75D2F8146503EB41114FF0FF3CF2
:10666000097FB1B3D2F80815D2F81055C2F80CC59D
:10667000C2F814C50268C2F808C5C2F810C57A1C71
:1066800006D007F5E0774FF0A042022042F827003D
:10669000771C06D006F5E0764FF0A042022042F8C3
:1066A0002600681C06D005F5E0754FF0A0420220D8
:1066B00042F825004A1C06D001F5E0714FF0A042D7
:1066C000022042F8210023440022DA765A60F0BC0E
:1066D0007047D2F80815D2F81055C2F814C5C2F8A0
:1066E0000CC50268C2F808C5C2F810C5C7E7C1F8F2
:1066F000002591E703499AE72C2B00208402020031
:1067000000E100E010030200F0B50379524C5B0198
:10671000E51887B02D7F25B101F06045B5F1005F28
:1067200058D123449E7D002E57D19A7599609E8240
:1067300005796D016219137F13BB0168C1F81C3123
:10674000D1F81C61016804960126049F8E600168DF
:10675000D2F808C0C1F81C31D1F81C310593059B53
:10676000968A938A5768B6B201331CF806609BB2CA
:106770009382C1F81C65002F32D0002007B0F0BD15
:1067800003689168C3F82061D3F82031019303684E
:10679000019FC3F85861D3F8586103680296967D4B
:1067A000029FC3F84415C3F8486503680121996046
:1067B0005368002BE1D1036801E0002949D1D3F8E7
:1067C0002021D3F85811002AF7D0002914BF0F2038
:1067D000002039E0102007B0F0BD112007B0F0BD57
:1067E000967D938A9E4222D9016804E0938A9BB2E7
:1067F000B3F5807F03D0D1F81C31002BF6D0938AFB
:106800009BB2B3F5807FECD0C1F81C71D1F81C317C
:106810000393039BB2F814E0938A1FFA8EFE0133B0
:106820001CF80EE09BB29382C1F81CE5D9E7938A6D
:106830009BB2B3F5807F0CD00268D2F81C31002BDC
:10684000FBD00123D36000202C440023A37507B0A4
:10685000F0BD0F20F8E700BF2C2B0020F0B5A94CAD
:10686000237F8FB0002B73D1A74AD2F80413890578
:1068700046D4A54BD3F80423520704D5D3F80821F6
:10688000002A40F0D480A04BD3F81C21BAB1A18AD1
:10689000A27D8A4200F2B9800021C3F81C11D3F80E
:1068A0001C310593059B52B1A3688DF82810A17582
:1068B0000B938DF83020D4E900130AA89847924B27
:1068C000D3F84421D2B10022C3F84421D3F84411B3
:1068D000A27E04910499002A40F09480E37D6BB17C
:1068E0000023617EE268E37501238DF830108DF896
:1068F00028300B92D4E900130AA898470FB0F0BDD6
:10690000D2F824110029B4D0C2F82431D2F82411CD
:10691000A37E07914FF401710798C2F808130BB9D1
:1069200001235360784A02238DF82830D2F880344E
:10693000C2F88034E07DE2680D9300238DF83000CA
:10694000E375237621680B9263680AA898479AE753
:106950006D4BD3F82421002A00F097800022C3F861
:106960002421D3F82411029102218DF828100299D4
:10697000D3F88014C3F880140D91D3F83C15E36864
:106980008DF830100B93E2752276216863680AA8AF
:1069900098475D4BD3F84421B2B10022C3F844219B
:1069A000D3F84401E17D0190019869B1D3F83C35F9
:1069B000E1688DF8303001230B918DF82830E275B5
:1069C000D4E900130AA898474F4BD3F82021002A96
:1069D00094D00022C3F82021D3F82001A17D00909B
:1069E000009800298AD0D3F84C15A3688DF8301090
:1069F0000B938DF82820A275D4E900130AA89847B4
:106A00000FB0F0BD01221A6068E70022C3F81C2114
:106A1000D3F81C210692069AA18AA28AA06889B29C
:106A20000132415C92B2A282C3F81C1547E7E27DB5
:106A3000002A54D00022C3F80821D3F80821089274
:106A4000089AE168627ED3F818358B54637EE27D44
:106A50000133DBB26376637E93427FF414AF237E0F
:106A60002168002B52D0E268657E2069E3750B92A5
:106A700000230122E060237663768DF830508DF894
:106A8000282063680AA89847FDE6D3F8101100296A
:106A90003FF47FAFC3F81021D3F81011039103998D
:106AA000D3F83C15E07DC9B288427FF472AF257EF1
:106AB000E768D4E90016DDB1D3F800C2E5752CF023
:106AC00020052276C3F80052012223698DF8300098
:106AD000E3600B978DF828200AA8B04759E7C3F860
:106AE0000821D3F8081109910999D3F81835B2E7AC
:106AF00001238DF83000E5750B978DF828300AA832
:106B0000B04746E72C2B002000200040A37E13B99D
:106B10000A4B01225A60094AE06863684FF4017524
:106B2000C2F80853627E8DF83020002501220B90B8
:106B3000E5758DF828200AA89847A4E600200040B3
:106B40002DE9F0414479544DE6003719BF0005EBBB
:106B5000070C9CF81CE0BEF1000F40F08F80EA515A
:106B6000CCF804300B7B91F800C0012B4FF0A0470C
:106B70004FF0010303FA0CF394BFC7F80C35C7F8C4
:106B800008350B784FF0A04E03F5E0734FF0010C81
:106B90004EF823C04F78FF2F68D007F5E0780CFA45
:106BA00007F34FF0030CCEF80C354EF828C08B7865
:106BB000FF2B60D003F5E07C9E464FF0A0434FF0E2
:106BC000040843F82C8091F803C0BCF1FF0F0FD0EC
:106BD0004FF0A048012303FA0CF3C8F80835CB782E
:106BE00003F5E0734FF0030C48F823C091F803C09D
:106BF000437903EBC30305EB830383F81EC00368EB
:106C000091F800C0C3F808C5C3F80C75C3F810E5C7
:106C10008F68C3F824754F7B91F80CC0003718BFFC
:106C20000127BCF1020F33D0BCF1030F2DD0BCF112
:106C3000010F01D147F00207C3F854754F79C3F82B
:106C4000C075F2B140270722C3F80473C3F80025CA
:106C5000097990F90400FEF7EFFE344405EB840552
:106C6000012300202B776877BDE8F0818B78FF2B1C
:106C70004FF0FF379ED14FF0FF3EA4E70820BDE85C
:106C8000F0810722C3F80025E7E747F00607D3E7BE
:106C900047F00407D0E700BF4C2B00202DE9F0435C
:106CA0004479444DE7003E19B60005EB060E83B06B
:106CB0009EF81D809DF828C0B8F1000F74D1AE5920
:106CC00016B101268EF81D600C264FF0240E1EFB17
:106CD000046E05EB0E083E1945F80E1005EB86060E
:106CE00088F80420C8F8083088F80CC096F821E02D
:106CF00096F81E8006F120090EF0FC066FF382065E
:106D0000B8F1FF0F89F8016006D001264FF0A04EC0
:106D100006FA08F6CEF80C6521B101F06046B6F12E
:106D2000005F25D123B103F06046B6F1005F1FD1AB
:106D300006680020C6F84415C6F84825C6F834355C
:106D4000C6F838C5C6F81801D6F8183101930122E3
:106D50003B190199C6F85005C6F84005326155F84F
:106D6000233073B14023C6F8043303B0BDE8F08389
:106D70003C4405EB840500236B77102003B0BDE88D
:106D8000F083D6F81831002BFBD03C4405EB84058A
:106D9000AB7FFF2B0CD001224FF0A04102FA03F38E
:106DA000C1F808350020E9E7112003B0BDE8F08301
:106DB0000020E3E74C2B00200F4BD3F8182102B939
:106DC000704700210D4AC3F81811D3F81811937FAA
:106DD00082B0FF2B0191019906D001214FF0A04014
:106DE00001FA03F3C0F80835002353771372D2E990
:106DF0000031034802B01847003000404C2B0020FF
:106E0000542B00204FF04023D3F8182102B97047CB
:106E100000210E4AC3F81811D3F8181192F8423025
:106E200082B0FF2B0191019906D001214FF0A040C3
:106E300001FA03F3C0F80835002382F8413082F8E4
:106E40002C30D2E90931024802B018474C2B0020FF
:106E5000782B0020114BD3F8182102B9704700217C
:106E60000F4AC3F81811D3F8181192F8663082B09F
:106E7000FF2B0191019906D001214FF0A04001FAAA
:106E800003F3C0F80835002382F8653082F85030EB
:106E9000D2E91231034802B0184700BF0030024067
:106EA0004C2B00209C2B002073DF704776DF70474F
:106EB0007ADF70477CDF70477FDF70478FDF704776
:106EC000A8DF7047A9DF704766DF7047014B0122DA
:106ED0001A707047CC2C0020FDF78CB800B583B039
:106EE00002AB054A43F8040D04211846FDF7EEF8FD
:106EF00003B05DF804FB00BFF973020010B503880E
:106F0000013B84B00446552B36D8DFE803F06035EA
:106F100035353535353535353535353535677D35A7
:106F200091353535353535353535353535352B35BF
:106F30003535353535353535353535353535353501
:106F400035353535353535353735353535353535EF
:106F500035353535353535353535353535353F56B6
:106F60003535353704A9002321F8103D8088FFF717
:106F7000A5FF08B1FDF73EF804B010BD80881321CD
:106F8000FFF794FF0028F5D104B010BD8379002BE2
:106F9000F2D0827B043A022AEED8022B18BF0123DA
:106FA0008DF8003080884FF4C1736946ADF8043025
:106FB000FFF786FF0028DFD0DCE7224A0023108895
:106FC00019461A46FFF77EFF0028D5D0D2E7808801
:106FD0000021FFF779FF0028CED0CBE71A4B1B49E1
:106FE0001888000440F00300FCF7D8FB0120FEF7EE
:106FF000C9FB0020FEF7D2FB124BA2881A80FCF7D7
:10700000C9FF0028B8D0B5E70F4B11491888000414
:1070100040F00300FCF7C2FB0120FEF7BFFB094B69
:107020004FF6FF721A80FCF7CBFF0028A4D0A1E72F
:10703000044A0023108885211A46FFF73DFF0028E7
:107040009AD097E7A821002088230020500703004A
:107050005C0703001F4B204A1B6800BF00BF00BF36
:1070600000BF00BF00BF00BF00BF93422FD000BFD2
:1070700000BF00BF00BF00BF00BF00BF00BF00BF18
:1070800000BF00BF00BF00BF00BF00BF00BF00BF08
:1070900000BF00BF00BF00BF00BF00BF00BF00BFF8
:1070A00000BF00BF00BF00BF00BF00BF00BF00BFE8
:1070B00000BF00BF00BF00BF00BF00BF00BF00BFD8
:1070C00000BF00BF00BF00BF00BF00BF00BF01384E
:1070D000C3D17047AC2100200024F40008B5037828
:1070E00003B108BD054B3B211888FFF7DFFE0028E0
:1070F000F7D0BDE80840FCF77DBF00BFA821002005
:1071000008B502205AB9FEF749FB074B0749188812
:10711000000440F00300BDE80840FCF73FBBFEF769
:1071200031FB014B0249F2E788230020800703006E
:107130006C07030008B51120FEF764FDEFF305832B
:1071400013F0FF0F4FF013000BD0FEF74BFD074B72
:1071500007491888000440F00300BDE80840FCF728
:107160001DBBFEF747FD014B0249F2E788230020D3
:10717000D8070300C007030010B584B04FF0A04348
:1071800004A94FF080520D4C01F8010DC3F80C25F5
:107190000022009222700A4B0A480122FFF77EFD6E
:1071A00008B108E020BF2378002BFBD00A20FFF7AE
:1071B00051FF04B010BDFCF71DFFF4E7CC2C0020FC
:1071C000C42C0020B807030010B584B04FF0A043D2
:1071D00004A94FF080520D4C01F8010DC3F80825A9
:1071E0000022009222700A4B0A480122FFF756FD46
:1071F00008B108E020BF2378002BFBD00A20FFF75E
:1072000029FF04B010BDFCF7F5FEF4E7CC2C0020FC
:10721000C42C0020B807030070B5061E0D4606DD1D
:1072200000240134FF20FFF7CFFFB442F9D1002042
:10723000FFF7CAFF0020FFF7C7FF0020FFF7C4FFDA
:10724000002D06DD00240134FF20FFF7BDFFAC4216
:10725000F9D170BD70B5061E0D4606DD002401345F
:10726000FF20FFF7B1FFB442F9D10020FFF7ACFFD8
:107270000020FFF7A9FF0020FFF7A6FF0020FFF77F
:10728000A3FF002D06DD00240134FF20FFF79CFF43
:10729000AC42F9D170BD00BF70B5061E0D4606DDCB
:1072A00000240134FF20FFF78FFFB442F9D1002002
:1072B000FFF78AFF002D06DD00240134FF20FFF7D1
:1072C00083FFAC42F9D170BD70B5061E0D4606DDD8
:1072D00000240134FF20FFF777FFB442F9D10020EA
:1072E000FFF772FF0020FFF76FFF002D06DD00247F
:1072F0000134FF20FFF768FFAC42F9D170BD00BF39
:1073000070B5061E0D4606DD00240134FF20FFF790
:107310005BFFB442F9D1002D06DD00240134FF20CB
:10732000FFF752FFAC42F9D170BD00BF70B5061E29
:107330000D4606DD00240134FF20FFF745FFB4426F
:10734000F9D105240020FFF73FFF013CFAD1002DC1
:1073500005DD0134FF20FFF737FFAC42F9D170BDE6
:107360000D3838B5032813D8DFE800F0022A131EC1
:107370001C4C1D4A236801211160002B30D0013BB9
:10738000002241F69A1119482360FDF7A9FB98B92C
:1073900038BD144B164A1B681649127801330B602E
:1073A00012B9114B03221A60002241F69A110F48BC
:1073B000FDF796FB0028EBD0BDE83840FCF71ABE7D
:1073C0000849094C0B680948013302250B6000226B
:1073D00041F69A112560FDF783FB0028ECD138BDFA
:1073E0000323CDE7C82C002094210020A42C0020EA
:1073F000682C0020D42C00200068FFF7B1BF00BF2C
:10740000F8B507462A200D4616461C46FFF7B4FE7F
:107410000020FFF7D9FEF8B2FFF7D6FE0020FFF7F5
:10742000D3FEF0B2FFF7D0FE2B20FFF7A5FE002021
:10743000FFF7CAFEE8B2FFF7C7FE0020FFF7C4FE61
:10744000E0B2BDE8F840FFF7BFBE00BF2DE9F04F46
:107450000021084685B0A0232B22FFF7D1FF2C2066
:10746000FFF78AFE374CDFF8E890DFF8E880364F08
:107470004FF02C0B4FF08056A0254FF0A04A4FF054
:10748000000C8DF80FC04346CAF808650122CDF8FC
:1074900000C00DF10F01384684F800C0FFF7FEFB75
:1074A00008B14BE020BF2378002BFBD00A23D9F88A
:1074B0000020264900BF00BF00BF00BF00BF00BFC3
:1074C00000BF00BF8A422FD000BF00BF00BF00BF77
:1074D00000BF00BF00BF00BF00BF00BF00BF00BFB4
:1074E00000BF00BF00BF00BF00BF00BF00BF00BFA4
:1074F00000BF00BF00BF00BF00BF00BF00BF00BF94
:1075000000BF00BF00BF00BF00BF00BF00BF00BF83
:1075100000BF00BF00BF00BF00BF00BF00BF00BF73
:1075200000BF00BF00BF00BF013BC3D1013DA6D1DA
:10753000BBF1010BA0D105B0BDE8F08FFCF75AFDFF
:10754000B1E700BFCC2C0020B80703000024F400F2
:10755000AC210020C42C0020F8B5071E0E461546AD
:1075600006DD00240134FF20FFF72EFEA742F9D1EB
:10757000002E06DD002401340020FFF725FEA64280
:10758000F9D1002D06DD00240134FF20FFF71CFE99
:10759000A542F9D1F8BD00BFF8B5071E0E46154645
:1075A00006DD002401340020FFF70EFEA742F9D1CA
:1075B000002E06DD00240134FF20FFF705FEA64261
:1075C000F9D1002D06DD002401340020FFF7FCFD79
:1075D000A542F9D1F8BD00BF002110B508463223FD
:1075E0001422FFF70DFF2C20FFF7C6FD1524002005
:1075F000FFF7EAFD0020FFF7E7FD0020FFF7E4FDBD
:107600000020FFF7E1FD013CF1D10C22052104200F
:10761000FFF7C2FF0C2205210420FFF7BDFF0B225C
:1076200007210320FFF7B8FF0B2207210320FFF7F4
:10763000B3FF0A2209210220FFF7AEFF0A22092127
:107640000220FFF7A9FF09220B210120FFF7A4FF69
:1076500009220B210120FFF79FFF09220B210120A6
:10766000FFF79AFF09220B210120FFF795FF204623
:1076700008220D21FFF790FF204608220D21FFF779
:107680008BFF204608220D21FFF786FF20460822A7
:107690000D21FFF781FF204608220D21FFF77CFF17
:1076A000204601220D21FFF777FF20460522022107
:1076B000FFF772FF204604221121FFF76DFF2046DD
:1076C00004221121FFF768FF204603221221FFF751
:1076D00063FF204603221221FFF75EFF20460322AC
:1076E0001221FFF759FF204603221221FFF754FF12
:1076F000204603221221FFF74FFF204603221221CA
:10770000FFF74AFF204603221221FFF745FF2046DC
:1077100003221221FFF740FF204603221221FFF728
:107720003BFF204604221121FFF736FF20460422AA
:107730001121FFF731FF204601220D21FFF72CFF19
:10774000204605220221FFF727FF22460721204677
:10775000FFF722FF2046FFF737FDFF20FFF734FD3C
:107760002046FFF731FD204608220321FFF714FFD2
:10777000224607212046FFF70FFFC020FFF724FD18
:107780001820FFF721FD0F20FFF71EFD20460822DD
:107790000321FFF701FF224607212046FFF7FCFEE9
:1077A000F820FFF711FD2046FFF70EFD1F20FFF721
:1077B0000BFD204608220321FFF7EEFE224607219B
:1077C0002046FFF7E9FEFF20FFF7FEFC2046FFF70B
:1077D000FBFCFF20FFF7F8FC204608220321FFF7FF
:1077E000DBFE224607212046FFF7D6FEF820FFF7F2
:1077F000EBFC2046FFF7E8FC1F20FFF7E5FC2046E6
:1078000008220321FFF7C8FE224607212046FFF782
:10781000C3FEC020FFF7D8FC1820FFF7D5FC0F20CF
:10782000FFF7D2FC204608220321FFF7B5FE2246CF
:1078300006210120FFF7B0FE2046FFF7C5FCFF2020
:10784000FFF7C2FC2046FFF7BFFC204609220221B9
:10785000FFF7A2FE09220B210120FFF79DFE09225E
:107860000B210120FFF798FE09220B210120FFF7D1
:1078700093FE0A2209210220FFF78EFE0A22092127
:107880000220FFF789FE0B2207210320FFF784FE69
:107890000B2207210320FFF77FFE0C220521042085
:1078A000FFF77AFE04200C220521FFF775FE02483F
:1078B000BDE81040FFF7CEBB20A10700EF4AF0491A
:1078C00038B5A020EF4BF04C1060002505200322B6
:1078D00008601A602560FFF7B9FD8D23212213216E
:1078E0000A20FFF78DFD2C20FFF746FC06240A2115
:1078F0000846FFF7AFFC013CF9D1072402221046ED
:107900000621FFF729FE0020FFF75EFC0020FFF7AD
:107910005BFC0020FFF758FC0020FFF755FC02221B
:1079200010460621FFF718FE013CE7D1072402228A
:1079300010460621FFF710FE0020FFF745FC00204F
:10794000FFF742FC0020FFF73FFC0020FFF73CFC64
:1079500002210846FFF7A0FC02210020FFF75CFC93
:10796000013CE4D1062405210A20FFF773FC042121
:107970000020FFF791FC013CF5D118240020FFF70F
:1079800023FC0020FFF720FC0020FFF71DFC002057
:10799000FFF71AFC013CF1D1042201210920FFF775
:1079A000FBFD0A24FF20FFF70FFC013CFAD1042263
:1079B00002210820FFF7F0FD0A24FF20FFF704FC56
:1079C000013CFAD1042203210720FFF7E5FD0A2438
:1079D000FF20FFF7F9FB013CFAD1042211460620F3
:1079E000FFF7DAFD0A24FF20FFF7EEFB013CFAD196
:1079F000052108460422FFF7CFFD0A24FF20FFF7E8
:107A0000E3FB013CFAD1042210460621FFF7C4FD36
:107A10000A24FF20FFF7D8FB013CFAD105220621FA
:107A20000320FFF7B9FD2046FFF7CEFB2046FFF706
:107A3000CBFB2046FFF7C8FB02210846FFF7ECFB13
:107A4000062211460220FFF7A7FD2046FFF7BCFBE8
:107A50002046FFF7B9FB2046FFF7B6FB0221084698
:107A6000FFF7DAFB072206210120FFF795FD2046EC
:107A7000FFF7AAFB2046FFF7A7FB2046FFF7A4FB72
:107A800002210846FFF7C8FB082206212046FFF71F
:107A900083FD2046FFF798FB2046FFF795FB204625
:107AA000FFF792FB02210846FFF7B6FB09220521EA
:107AB0002046FFF771FD2046FFF786FB2046FFF7C3
:107AC00083FB2046FFF780FB02210846FFF7A4FB5B
:107AD0000A2204212046FFF75FFD2046FFF774FBD2
:107AE0002046FFF771FB2046FFF76EFB0221084698
:107AF000FFF792FB0B2203212046FFF74DFD2046A6
:107B0000FFF762FB2046FFF75FFB2046FFF75CFBB9
:107B100002210846FFF780FB0B2203212046FFF7D6
:107B20003BFD2046FFF750FB2046FFF74DFB20466C
:107B3000FFF74AFB02210846FFF76EFB0A220421E9
:107B40002046FFF729FD2046FFF73EFB2046FFF7C2
:107B50003BFB2046FFF738FB02210846FFF75CFBA2
:107B6000092205212046FFF717FD2046FFF72CFBD1
:107B70002046FFF729FB2046FFF726FB0221084697
:107B8000FFF74AFB082206212046FFF705FD2046A5
:107B9000FFF71AFB2046FFF717FB2046FFF714FB01
:107BA00002210846FFF738FB072206210120FFF7D4
:107BB000F3FC2046FFF708FB2046FFF705FB2046B5
:107BC000FFF702FB02210846FFF726FB06221146BB
:107BD0000220FFF7E1FC2046FFF7F6FA2046FFF708
:107BE000F3FA2046FFF7F0FA02210846FFF714FBEC
:107BF000052206210320FFF7CFFC2046FFF7E4FA19
:107C00002046FFF7E1FA2046FFF7DEFA0221084698
:107C1000FFF702FB042210460621FFF7BDFC0A24F1
:107C2000FF20FFF7D1FA013CFAD1052108460422D2
:107C3000FFF7B2FC0A24FF20FFF7C6FA013CFAD195
:107C4000042211460620FFF7A7FC0A24FF20FFF7B5
:107C5000BBFA013CFAD1042203210720FFF79CFC68
:107C60000A24FF20FFF7B0FA013CFAD104220221D6
:107C70000820FFF791FC0A2408E000BF98210020AB
:107C800094210020A0210020D42C0020FF20FFF709
:107C90009BFA013CFAD1042201210920FFF77CFC68
:107CA0000A24FF20FFF790FA013CFAD118240020A3
:107CB000FFF78AFA0020FFF787FA0020FFF784FA1F
:107CC0000020FFF781FA013CF1D106240A21084681
:107CD000FFF7C0FA013CF9D1042502210846FFF75D
:107CE000F3FA022108460422FFF756FC082400207C
:107CF000FFF76AFA013CFAD1FF20FFF765FAFF208F
:107D0000FFF762FA013DE8D1062502210846FFF798
:107D1000DBFA022108460422FFF73EFC0A24FF207A
:107D2000FFF752FA013CFAD1013DEED104250221C0
:107D30000846FFF7C9FA022108460422FFF72CFC87
:107D400008240020FFF740FA013CFAD1FF20FFF79A
:107D50003BFAFF20FFF738FA013DE8D10625022162
:107D60000846FFF7B1FA022108460422FFF714FC87
:107D70000A24FF20FFF728FA013CFAD1013DEED199
:107D800018240020FFF720FA0020FFF71DFA00203A
:107D9000FFF71AFA0020FFF717FA013CF1D1062489
:107DA0000A210846FFF756FA013CF9D10A240222BB
:107DB00011460420FFF7F0FB042202210020FFF708
:107DC000EBFB02210846FFF77FFA0221084600225A
:107DD000FFF7E2FB013CEAD1032108460222FFF74C
:107DE000DBFB042202212046FFF7D6FB02210846D6
:107DF000FFF76AFA022108462246FFF7CDFB02226E
:107E000010460421FFF7C8FB042202212046FFF799
:107E1000C3FB02210846FFF757FA02210846224613
:107E2000FFF7BAFB022205210120FFF7B5FB042270
:107E300002212046FFF7B0FB02210846FFF744FA73
:107E4000022108462246FFF7A7FB02220621204610
:107E5000FFF7A2FB042202212046FFF79DFB02212F
:107E60000846FFF731FA022108462246FFF794FB45
:107E700004220A212046FFF78FFB02210846FFF764
:107E800023FA022108462246FFF786FB04220A2134
:107E90002046FFF781FB02210846FFF715FA022171
:107EA00008462246FFF778FB012203212046FFF710
:107EB00073FB042206212046FFF76EFB02210846D1
:107EC000FFF702FA022108462246FFF765FB02226D
:107ED00011462046FFF760FB042206212046FFF7EB
:107EE0005BFB02210846FFF7EFF902210846224614
:107EF000FFF752FB032201212046FFF74DFB04222E
:107F000006212046FFF748FB02210846FFF7DCF96F
:107F1000022108462246FFF73FFB04222146204665
:107F2000FFF73AFB042206212046FFF735FB02212A
:107F30000846FFF7C9F9022108462246FFF72CFB45
:107F40000B48FFF787F8A0232C2221462046FFF795
:107F500057FA2C20FFF710F96425A0240020FFF722
:107F600033F9013CFAD1013DF7D1024B1D7038BD08
:107F700040420F00682C002010B52C20FFF7FCF8C1
:107F80000020FFF721F91820FFF71EF90020FFF766
:107F90001BF90020FFF718F91820FFF715F900204A
:107FA000FFF712F90020FFF70FF9FF20FFF70CF998
:107FB0000020FFF709F90020FFF706F9FF20FFF77F
:107FC00003F90020FFF700F90320FFF7FDF8FF2079
:107FD000FFF7FAF8C020FFF7F7F80320FFF7F4F8EF
:107FE000FF20FFF7F1F8C020FFF7EEF83F20FFF782
:107FF000EBF8FF20FFF7E8F8FC20FFF7E5F83F205B
:10800000FFF7E2F8FF20FFF7DFF8FC20FFF7DCF8CE
:10801000FF20FFF7D9F8FF20FFF7D6F8FF20FFF782
:10802000D3F8FF20FFF7D0F8FF20FFF7CDF8FF20AF
:10803000FFF7CAF80F240020FFF7C6F8FF20FFF76C
:10804000C3F80020FFF7C0F8013CF4D10320FFF78C
:10805000BBF8FF20FFF7B8F8C020FFF7B5F8032002
:10806000FFF7B2F8FF20FFF7AFF8C020FFF7ACF83A
:1080700008243F20FFF7A8F8FF20FFF7A5F8FC2011
:10808000FFF7A2F8013CF4D12046FFF79DF8204607
:10809000FFF79AF82046BDE81040FFF795B800BFFB
:1080A00008B52C20FFF768F80020FFF78DF80020B6
:1080B000FFF78AF80320FFF787F8FF20FFF784F81F
:1080C000C020FFF781F80020FFF77EF80020FFF7BF
:1080D0007BF8FF20FFF778F8FF20FFF775F8D8202E
:1080E000FFF772F80020FFF76FF80320FFF76CF836
:1080F000FF20FFF769F8FF20FFF766F8FF20FFF782
:1081000063F80020FFF760F81F20FFF75DF8FF20FD
:10811000FFF75AF8FF20FFF757F8FF20FFF754F852
:108120000020FFF751F8FF20FFF74EF8FF20FFF780
:108130004BF8FF20FFF748F8F820FFF745F8032039
:10814000FFF742F8FF20FFF73FF8FF20FFF73CF86A
:10815000FF20FFF739F8F820FFF736F81F20FFF768
:1081600033F8FF20FFF730F8FF20FFF72DF8FF204E
:10817000FFF72AF8C020FFF727F8FF20FFF724F8C1
:10818000FF20FFF721F8FF20FFF71EF8F820FFF788
:108190001BF80020FFF718F81F20FFF715F8FF2045
:1081A000FFF712F8FF20FFF70FF8FF20FFF70CF89A
:1081B000C020FFF709F80320FFF706F8FF20FFF7BC
:1081C00003F8FF20FFF700F8FF20FEF7FDFFF8207F
:1081D000FEF7FAFF0020FEF7F7FFFF20FEF7F4FF9F
:1081E000FF20FEF7F1FFFF20FEF7EEFFF820FEF77D
:1081F000EBFF0020FEF7E8FF1F20FEF7E5FFFF2062
:10820000FEF7E2FFFF20FEF7DFFFFF20FEF7DCFFB7
:108210000020FEF7D9FF0320FEF7D6FFFF20FEF770
:10822000D3FFFF20FEF7D0FFFF20FEF7CDFF002099
:10823000FEF7CAFF0020FEF7C7FFFF20FEF7C4FFCE
:10824000FF20FEF7C1FFD820FEF7BEFF0020FEF79B
:10825000BBFF0020FEF7B8FF0320FEF7B5FFFF20AD
:10826000FEF7B2FFC020BDE80840FEF7ADBF00BF7B
:108270002DE9F04F4C4E3368002B87B012DD0E25F0
:1082800000242B4604EB04112A222620FFF7B8F81D
:10829000FFF706FF33680134A34205F11105F0DC56
:1082A000022B7BDC03EB0313404CDFF808A1DFF863
:1082B0000891DFF8088103934FF0805703990B462C
:1082C0000E332A222620FFF79BF82C20FEF754FFBE
:1082D0004FF0050B0F254FF0A0464FF0000C8DF826
:1082E00017C04B46C6F808750122CDF800C00DF145
:1082F0001701404684F800C0FEF7D0FC08B150E0FA
:1083000020BF2378002BFBD00A23DAF8002028496D
:1083100000BF00BF00BF00BF00BF00BF00BF00BF65
:108320008A422FD000BF00BF00BF00BF00BF00BF08
:1083300000BF00BF00BF00BF00BF00BF00BF00BF45
:1083400000BF00BF00BF00BF00BF00BF00BF00BF35
:1083500000BF00BF00BF00BF00BF00BF00BF00BF25
:1083600000BF00BF00BF00BF00BF00BF00BF00BF15
:1083700000BF00BF00BF00BF00BF00BF00BF00BF05
:1083800000BF00BF013BC3D1013DA6D1BBF1010B32
:10839000A0D1039B1133332B03938FD107B0BDE8DA
:1083A000F08FFBF727FEACE7A0210020CC2C0020AB
:1083B0000024F400AC210020C42C0020B8070300E6
:1083C00070B53A4C216811F1240F09DB384B1D6858
:1083D000DDB1012D47D0374B1B68002B39D0216808
:1083E000013911F5FA7F216000D070BD3249304A61
:1083F0000B68324D106801330B600023A0212B70F5
:10840000216000282CD0136070BD01F124032846A0
:108410000222FEF7F5FFFFF7AFFD2368312BDADC10
:10842000274B244D1A682B68012AD6D0234A11788D
:108430000029D2D1013B012111702B60FFF718FFF9
:10844000FFF7CAF81C492B680A68013A0A60002B3A
:10845000C5D1194A136801331360FFF72FFABEE73D
:108460000123136070BD01F124030F220D20FEF7DC
:10847000C7FFFFF781FD2368312BACDC104B0D4E9D
:108480001A683368022AA8D00C4A11780029A4D1AE
:10849000013B33601570FFF7EBFEFFF79DF80649CF
:1084A00033680A68013A0A6097E700BF9821002004
:1084B0006C2C0020A0210020702C0020742C0020A7
:1084C000D02C002038B500249E4D21462046322372
:1084D00014222C60FEF794FF2C20FEF74DFE15248D
:1084E0000020FEF771FE0020FEF76EFE0020FEF772
:1084F0006BFE0020FEF768FE013CF1D10C22052145
:108500000420FFF749F80C2205210420FFF744F866
:108510000B2207210320FFF73FF80B22072103203E
:10852000FFF73AF80A2209210220FFF735F80A225C
:1085300009210220FFF730F809220B210120FFF763
:108540002BF809220B210120FFF726F809220B2125
:108550000120FFF721F809220B210120FFF71CF869
:10856000204608220D21FFF717F8204608220D218A
:10857000FFF712F8204608220D21FFF70DF82046DC
:1085800008220D21FFF708F8204608220D21FFF7E9
:1085900003F8204601220D21FEF7FEFF20460522AA
:1085A0000221FEF7F9FF204604221121FEF7F4FF15
:1085B000204604221121FEF7EFFF2046032212215C
:1085C000FEF7EAFF204603221221FEF7E5FF2046D0
:1085D00003221221FEF7E0FF204603221221FEF7BC
:1085E000DBFF204603221221FEF7D6FF204603229E
:1085F0001221FEF7D1FF204603221221FEF7CCFF05
:10860000204603221221FEF7C7FF20460322122133
:10861000FEF7C2FF204604221121FEF7BDFF2046CF
:1086200004221121FEF7B8FF204601220D21FEF79A
:10863000B3FF204605220221FEF7AEFF2246204668
:108640000721FEF7A9FF032108460822FEF7A4FF31
:10865000224620460721FEF79FFF032108460822F5
:10866000FEF79AFF224620460721FEF795FF0321D9
:1086700008460822FEF790FF224620460721FEF713
:108680008BFF032108460822FEF786FF224620467C
:108690000721FEF781FF032108460822FEF77CFF31
:1086A000224620460721FEF777FF032108460822CD
:1086B000FEF772FF224606210120FEF76DFF092218
:1086C00002210320FEF768FF09220B210120FEF79B
:1086D00063FF09220B210120FEF75EFF09220B2117
:1086E0000120FEF759FF0A2209210220FEF754FF5C
:1086F0000A2209210220FEF74FFF0B220721032047
:10870000FEF74AFF0B2207210320FEF745FF0C224C
:1087100005210420FEF740FF0C2205210420FEF76E
:108720003BFF094DC82401E0013C0AD0FFF748FE99
:108730004FF47A70FEF78EFCFBF732FD2B68002BAE
:10874000F2D038BDD02C00209421002038B5002173
:10875000CA4C08463223142201252560FEF750FE3C
:108760002C20FEF709FD15240020FEF72DFD00202A
:10877000FEF72AFD0020FEF727FD0020FEF724FD6E
:10878000013CF1D121460620FEF786FD0922204654
:108790000521FEF701FF21460620FEF77DFD092297
:1087A00020460521FEF7F8FE21460520FEF774FD60
:1087B000204608220721FEF7EFFE082207210620A7
:1087C000FEF7EAFE072209210520FEF7E5FE072253
:1087D00009210520FEF7E0FE21460320FEF790FD6B
:1087E00006220B210120FEF7D7FE21460320FEF7CB
:1087F00087FD06220B210120FEF7CEFE2146032035
:10880000FEF77EFD06220B210120FEF7C5FE0622A3
:108810000B210420FEF7C0FE05220D210320FEF7E8
:10882000BBFE05220D210320FEF7B6FE21460220E5
:10883000FEF732FD052220460D21FEF7ADFE214652
:108840000220FEF729FD052220460D21FEF7A4FE99
:1088500021460220FEF720FD204605220D21FEF7CD
:108860009BFE01220D210320FEF796FE02221146F7
:108870002046FEF791FE012211210320FEF78CFE17
:10888000012211210320FEF787FE21460220FEF778
:1088900003FD224620461221FEF77EFE21460220DD
:1088A000FEF7FAFC224620461221FEF775FE21460D
:1088B0000220FEF7F1FC224620461221FEF76CFE54
:1088C000224612210320FEF767FE224612210320D2
:1088D000FEF762FE224612210320FEF75DFE2146CE
:1088E0000220FEF7D9FC224620461221FEF754FE54
:1088F00021460220FEF7D0FC224620461221FEF738
:108900004BFE21460220FEF7C7FC224620461221DC
:10891000FEF742FE012211210320FEF73DFE012257
:1089200011210320FEF738FE01220D210320FEF75E
:1089300033FE022211462046FEF72EFE07210220BA
:10894000FEF7AAFC032108460522FEF725FE0721B3
:108950000220FEF7A1FC032108460522FEF71CFEBB
:1089600007210220FEF798FC032108460522FEF7A6
:1089700013FE224607210320FEF70EFE03210846C0
:108980000522FEF709FE224607210320FEF704FE1A
:10899000032108460522FEF7FFFD2246072103209A
:1089A000FEF7FAFD032108460522FEF7F5FD062134
:1089B0000320FEF771FC062202210320FEF7ECFDE6
:1089C000FF20FEF701FCFF20FEF7FEFBFF20FEF775
:1089D000FBFB06220B210120FEF7DEFDFF20FEF748
:1089E000F3FBFF20FEF7F0FBFF20FEF7EDFB062276
:1089F0000B210120FEF7D0FD06220B210420FEF7FB
:108A0000CBFD072209210520FEF7C6FD072209211B
:108A10000520FEF7C1FD0524FF20FEF7D5FB013C34
:108A2000FAD1082207210120FEF7B6FD0524FF2018
:108A3000FEF7CAFB013CFAD1082207210120FEF70C
:108A4000ABFD0624FF20FEF7BFFB013CFAD1092253
:108A500005210120FEF7A0FD092205210720FEF7D0
:108A60009BFDC824FFF7ACFC4FF47A70FEF7F2FAD6
:108A7000FBF796FB013CF5D138BD00BFD02C0020A0
:108A80002DE9F047C94BCA4CDFF830A3DFF830932B
:108A90000021022208461A6084B032231422FEF715
:108AA000AFFC2C20FEF768FB15274FF080580425FB
:108AB0004FF0A0464FF0000C8DF80FC05346C6F89B
:108AC00008850122CDF800C00DF10F01484684F859
:108AD00000C0FEF7E3F808B165E120BF2378002B62
